:1000000045C0000060C000005EC000005CC0000091
:100010005AC0000058C0000056C0000054C0000084
:1000200052C0000050C000004EC000004CC0000094
:100030004AC0000050C1000046C0000044C000009B
:1000400042C0000040C000003EC000003CC00000B4
:100050003AC0000038C0000036C0000034C00000C4
:1000600032C0000030C000002EC000002CC00000D4
:100070002AC0000028C0000026C0000024C00000E4
:1000800022C0000020C000001EC0000011241FBEBE
:10009000CFEFD0E4DEBFCDBF11E0A0E0B1E0E0E300
:1000A000F6E000E00BBF02C007900D92A430B1074C
:1000B000D9F721E0A4E0B1E001C01D92AC30B20755
:1000C000E1F78BD2B3C29CCFCF93DF93CDB7DEB72E
:1000D00084E690E082D088E30DD086E00BD08FE0FC
:1000E00009D081E007D08AE090E077D00000DF916E
:1000F000CF910895CF93DF931F92CDB7DEB7898359
:100100008BE290E02BE230E0F90120812F7BFC01B3
:10011000208388E290E02981FC0120838BE290E03B
:100120002BE230E0F90120812068FC0120830000EF
:100130008BE290E02BE230E0F90120812F77FC0187
:10014000208382E090E049D000000F90DF91CF91B2
:100150000895CF93DF931F92CDB7DEB789838BE2EB
:1001600090E02BE230E0F90120812064FC01208343
:1001700088E290E02981FC0120838BE290E02BE271
:1001800030E0F90120812068FC01208300008BE22F
:1001900090E02BE230E0F90120812F77FC012083F1
:1001A00081E090E01AD000000F90DF91CF91089588
:1001B000CF93DF931F92CDB7DEB7898389818131D9
:1001C00020F48981815896DF03C08981815592DFAF
:1001D00000000F90DF91CF910895CF93DF9300D06F
:1001E00000D000D0CDB7DEB79E838D831A821982EE
:1001F00013C01C821B8206C000008B819C8101966B
:100200009C838B838B819C8187309340ACF3898165
:100210009A8101969A83898329813A818D819E8171
:100220002817390734F3000026960FB6F894DEBF7E
:100230000FBECDBFDF91CF910895CF93DF93CDB7A0
:10024000DEB781E890E02BE0FC01208388E890E0B5
:100250002DE730E0FC01318320838FE690E022E03F
:10026000FC01208384E890E0FC01118210828091DF
:10027000000190910101A0910201B09103018093CE
:10028000050190930601A0930701B09308018FE543
:1002900090E02FE530E0F90120812068FC01208307
:1002A0000000DF91CF910895CF93DF93CDB7DEB7F4
:1002B00081E890E0FC0110820000DF91CF91089569
:1002C000CF93DF93CDB7DEB781E0809304010000C8
:1002D000DF91CF9108951F920F9200905F000F92CF
:1002E000112400905B000F922F933F934F935F93E5
:1002F0006F937F938F939F93AF93BF93EF93FF93EE
:10030000CF93DF93CDB7DEB78091050190910601C1
:10031000A0910701B09108010197A109B10980934B
:10032000050190930601A0930701B0930801809105
:10033000050190910601A0910701B0910801892B58
:100340008A2B8B2B89F4BCDF8091000190910101F5
:10035000A0910201B09103018093050190930601E1
:10036000A0930701B09308010000DF91CF91FF91A6
:10037000EF91BF91AF919F918F917F916F915F911D
:100380004F913F912F910F9000925B000F90009240
:100390005F000F901F901895CF93DF9300D000D08F
:1003A000CDB7DEB769837A838B839C8389819A81F9
:1003B000AB81BC818093000190930101A093020165
:1003C000B09303018091000190910101A09102017D
:1003D000B09103018093050190930601A09307015A
:1003E000B093080100000F900F900F900F90DF91D5
:1003F000CF910895CF93DF9300D0CDB7DEB780E2E1
:1004000090E0FC018081882F90E08170992721E0A5
:10041000892B09F020E0298380E290E0FC018081B3
:10042000809582708A838091090190910A018130C0
:10043000910599F18130910540F08230910509F4E0
:100440004AC0039709F465C076C08981882351F0BA
:100450008A81882339F083E090E090930A018093A9
:10046000090169C08981882341F0E7DE81E090E0DD
:1004700090930A01809309015EC08A81882341F02C
:10048000DCDE82E090E090930A018093090153C082
:1004900010920A01109209014EC08981882359F0F7
:1004A0008A81882341F000DF83E090E090930A0185
:1004B0008093090140C08981882339F081E090E070
:1004C00090930A018093090136C0EEDE10920A0172
:1004D0001092090130C08981882359F08A818823CC
:1004E00041F0E2DE83E090E090930A0180930901FD
:1004F00022C08A81882339F082E090E090930A013B
:100500008093090118C0D0DE10920A0110920901EF
:1005100012C08981882351F08A81882339F083E0D1
:1005200090E090930A018093090104C010920A019F
:100530001092090100008091090190910A01813017
:10054000910569F08130910530F082309105E9F034
:10055000039789F13CC081E08093040138C0809109
:100560000401882389F180910B01893058F480912E
:100570000B018F5F80930B0181E01ADE80910B01EC
:10058000805DE7DD109204011FC080910401882383
:10059000E9F080910B01882359F080910B01815083
:1005A00080930B0181E004DE80910B01805DD1DD41
:1005B000109204010BC010920B0181E0F9DD8091D3
:1005C0000B01805DC6DD03C0000001C0000000001B
:1005D0000F900F90DF91CF910895CF93DF93CDB718
:1005E000DEB781E290E0FC01108282E290E02FEF22
:1005F000FC01208387E290E02FEFFC01208388E25A
:1006000090E0FC0110828AE290E02FEFFC01208351
:100610008BE290E0FC01108210920B0168EE73E017
:1006200080E090E0B9DE50DDE5DEFECFF894FFCF4C
:0406300001000000C5
:00000001FF
